:020000040000FA
:100000000C9462000C948A000C948A000C948A0070
:100010000C948A000C948A000C948A000C948A0038
:100020000C948A000C948A000C948A000C948A0028
:100030000C948A000C948A000C948A000C948A0018
:100040000C94EF020C948A000C94BD020C9497025D
:100050000C948A000C948A000C948A000C948A00F8
:100060000C948A000C948A000000000024002700F1
:100070002A0000000000250028002B0000000000DE
:1000800023002600290004040404040404040202DA
:100090000202020203030303030301020408102007
:1000A0004080010204081020010204081020000012
:1000B0000008000201000003040700000000000027
:1000C0000000390311241FBECFEFD8E0DEBFCDBF43
:1000D00011E0A0E0B1E0EAE4FDE002C005900D927D
:1000E000A631B107D9F721E0A6E1B1E001C01D9228
:1000F000A03DB207E1F710E0C2E6D0E004C02197CE
:10010000FE010E949D06C136D107C9F70E947F03F8
:100110000C94A3060C940000AF92BF92CF92DF9292
:10012000EF92FF920F931F93CF93DF936C017B01AC
:100130008B01040F151FEB015E01AE18BF08C0173D
:10014000D10759F06991D601ED91FC910190F081B0
:10015000E02DC6010995892B79F7C501DF91CF9173
:100160001F910F91FF90EF90DF90CF90BF90AF90D5
:100170000895FC01538D448D252F30E0842F90E0AD
:10018000821B930B541710F0CF9608950197089592
:10019000FC01918D828D981761F0A28DAE0FBF2F5B
:1001A000B11D5D968C91928D9F5F9F73928F90E0B1
:1001B00008958FEF9FEF0895FC01918D828D981720
:1001C00031F0828DE80FF11D858D90E008958FEF5D
:1001D0009FEF0895FC01918D228D892F90E0805C26
:1001E0009F4F821B91098F73992708958FE191E0AA
:1001F0000E94EA0021E0892B09F420E0822F089573
:1002000080E090E0892B29F00E94F60081110C9487
:1002100000000895FC01A48DA80FB92FB11DA35AA9
:10022000BF4F2C91848D90E001968F739927848F16
:10023000A689B7892C93A089B1898C918370806439
:100240008C93938D848D981306C00288F389E02DDA
:1002500080818F7D80830895EF92FF920F931F938B
:10026000CF93DF93EC0181E0888F9B8D8C8D981369
:100270001AC0E889F989808185FF15C09FB7F89475
:10028000EE89FF896083E889F989808183708064C1
:1002900080839FBF81E090E0DF91CF911F910F910C
:1002A000FF90EF900895F62E0B8D10E00F5F1F4F1B
:1002B0000F731127E02E8C8D8E110CC00FB607FC2A
:1002C000FACFE889F989808185FFF5CFCE010E94B8
:1002D0000A01F1CFEB8DEC0FFD2FF11DE35AFF4F1B
:1002E000F0829FB7F8940B8FEA89FB898081806246
:1002F000CFCFCF93DF93EC01888D8823B9F0AA8903
:10030000BB89E889F9898C9185FD03C0808186FDD0
:100310000DC00FB607FCF7CF8C9185FFF2CF80811F
:1003200085FFEDCFCE010E940A01E9CFDF91CF9189
:100330000895833081F028F4813099F08230A9F05B
:1003400008958730A9F08830C9F08430B1F48091E5
:1003500080008F7D03C0809180008F778093800024
:10036000089584B58F7784BD089584B58F7DFBCFC4
:100370008091B0008F778093B00008958091B00095
:100380008F7DF9CFCF93DF93282F30E0F901E2552D
:10039000FF4F8491F901E656FF4FD491F901EA57D6
:1003A000FF4FC491CC23A1F081110E949901EC2F41
:1003B000F0E0EE0FFF1FE458FF4FA591B491EC91D0
:1003C000ED2381E090E009F480E0DF91CF91089582
:1003D00080E090E0FACF1F93CF93DF93282F30E097
:1003E000F901E255FF4F8491F901E656FF4FD49190
:1003F000F901EA57FF4FC491CC23A9F0162F8111C0
:100400000E949901EC2FF0E0EE0FFF1FEE58FF4F16
:10041000A591B4918FB7F894EC91111108C0D095C3
:10042000DE23DC938FBFDF91CF911F910895DE2BE8
:10043000F8CFCF93DF9390E0FC01E656FF4F249175
:100440008A579F4FFC0184918823D1F090E0880F58
:10045000991FFC01E859FF4FA591B491FC01EE589A
:10046000FF4FC591D49161110EC09FB7F8948C9144
:10047000E22FE0958E238C932881E223E8839FBFAF
:10048000DF91CF9108958FB7F894EC91E22BEC9324
:100490008FBFF6CF3FB7F894809117019091180164
:1004A000A0911901B0911A0126B5A89B05C02F3F54
:1004B00019F00196A11DB11D3FBFBA2FA92F982F8A
:1004C0008827BC01CD01620F711D811D911D42E085
:1004D000660F771F881F991F4A95D1F70895EF92ED
:1004E000FF920F931F93CF93DF93F090BD01E090A5
:1004F000BC0108E010E0C0E0D0E861E08F2D0E9470
:10050000EB018E2D0E94C201019709F4CD2B60E012
:100510008F2D0E94EB01D6950150110971F78C2F98
:10052000DF91CF911F910F91FF90EF9008951F924F
:100530000F920FB60F9211242F933F934F935F9317
:100540006F937F938F939F93AF93BF93EF93FF939B
:100550008FE191E00E940A01FF91EF91BF91AF916D
:100560009F918F917F916F915F914F913F912F91CB
:100570000F900FBE0F901F9018951F920F920FB6FD
:100580000F9211242F938F939F93EF93FF93E091FA
:100590002F01F09130018081E0913501F091360119
:1005A00082FD1BC09081809138018F5F8F732091F5
:1005B0003901821741F0E0913801F0E0E15EFE4F31
:1005C000958F80933801FF91EF919F918F912F919B
:1005D0000F900FBE0F901F9018958081F4CF1F923F
:1005E0000F920FB60F9211242F933F938F939F93E7
:1005F000AF93BF9380911B0190911C01A0911D01AD
:10060000B0911E013091160123E0230F2D3758F5CC
:100610000196A11DB11D2093160180931B0190939B
:100620001C01A0931D01B0931E01809117019091B0
:100630001801A0911901B0911A010196A11DB11DD7
:100640008093170190931801A0931901B0931A0198
:10065000BF91AF919F918F913F912F910F900FBEBE
:100660000F901F90189526E8230F0296A11DB11D2B
:10067000D2CFEFE1F1E01382128288EE93E0A0E0A6
:10068000B0E084839583A683B78384E091E091836F
:10069000808385EC90E09587848784EC90E0978751
:1006A000868780EC90E0918B808B81EC90E0938B3F
:1006B000828B82EC90E0958B848B86EC90E0978B1C
:1006C000868B118E128E138E148EECEBF1E080E887
:1006D0008283138214821582168280E090E0A0E863
:1006E000BFE387839087A187B28713861486158618
:1006F00016861786108A118A128A138A08957894AA
:1007000084B5826084BD84B5816084BD85B5826016
:1007100085BD85B5816085BD80916E0081608093C7
:100720006E00109281008091810082608093810030
:100730008091810081608093810080918000816040
:10074000809380008091B10084608093B10080919B
:10075000B00081608093B00080917A0084608093C3
:100760007A0080917A00826080937A0080917A008A
:10077000816080937A0080917A00806880937A000B
:100780001092C10061E083E10E94190260E083E100
:100790000E94EB01E0912F01F091300182E0808313
:1007A000E0912B01F0912C011082E0912D01F0914C
:1007B0002E018FEC808310923701E0913301F0918C
:1007C000340186E08083E0913101F0913201808133
:1007D00080618083E0913101F091320180818860F5
:1007E0008083E0913101F0913201808180688083C3
:1007F000E0913101F091320180818F7D80838FE221
:100800008093BC018EE28093BD0160E08FE20E9484
:10081000190261E08091BD010E94190260E080919F
:10082000BD010E94EB011092BF011092C001109215
:10083000C1011092C20180E090E0A0E8BFE3809384
:10084000C3019093C401A093C501B093C60180E891
:100850008093BE011092C7011092C8011092C90185
:100860001092CA011092CF0161E08EE20E9419023B
:100870008DE792EAA8E6B8E38093C3019093C401A0
:10088000A093C501B093C601DAE0C12CD12C76014A
:100890008091BC010E94C2010197D1F310E0F8944D
:1008A0000E946F02B82E0E946F02982E0E946F0263
:1008B000A82E9091BE01903471F08091BD01C2E0EC
:1008C000903251F061E00E94EB0160E08091BD0147
:1008D0000E94EB010DC0C3E061E08091BD010E9468
:1008E000EB0160E08091BD010E94EB01C150A1F7D6
:1008F0007894B7FC1FEF2FB7F89480911B0190916B
:100900001C01A0911D01B0911E012FBF8093C70152
:100910009093C801A093C901B093CA016A2D792DA3
:100920008B2D912F0E9411069B01AC01C701B601CE
:100930000E94FB046B017C01D15009F0A9CF20E09B
:1009400030E040E251E40E9467050E94D9056093BF
:10095000BF017093C0018093C1019093C201C0E0B8
:10096000D0E061E083E10E94EB0161E48FE191E07E
:100970000E942C0142E050E062E171E08FE191E0E1
:100980000E948C008FE191E00E94790160E083E198
:100990000E94EB010E944A024B015C0188EEC82EC6
:1009A00083E0D82EE12CF12C0E944A0268197909C3
:1009B0008A099B09683E734081059105A8F321E0EF
:1009C000C21AD108E108F10888EE880E83E0981E6B
:1009D000A11CB11CC114D104E104F10429F7209732
:1009E00009F4BFCF0E94F600882309F4BACF0E9411
:1009F0000000B7CF5058BB27AA270E9412050C94BD
:100A000063060E94550638F00E945C0620F039F417
:100A10009F3F19F426F40C9452060EF4E095E7FB80
:100A20000C944C06E92F0E94740658F3BA1762071B
:100A300073078407950720F079F4A6F50C949606C1
:100A40000EF4E0950B2EBA2FA02D0B01B9019001E9
:100A50000C01CA01A0011124FF27591B99F0593F2D
:100A600050F4503E68F11A16F040A22F232F342F75
:100A70004427585FF3CF469537952795A795F040C3
:100A80005395C9F77EF41F16BA0B620B730B840BD8
:100A9000BAF09150A1F0FF0FBB1F661F771F881F90
:100AA000C2F70EC0BA0F621F731F841F48F48795E8
:100AB00077956795B795F7959E3F08F0B0CF9395DA
:100AC000880F08F09927EE0F9795879508950E9453
:100AD0007B050C9463060E945C0658F00E94550644
:100AE00040F029F45F3F29F00C944C0651110C940E
:100AF00097060C9452060E94740668F39923B1F38A
:100B0000552391F3951B550BBB27AA276217730733
:100B1000840738F09F5F5F4F220F331F441FAA1FC7
:100B2000A9F335D00E2E3AF0E0E832D09150504083
:100B3000E695001CCAF72BD0FE2F29D0660F771F31
:100B4000881FBB1F261737074807AB07B0E809F017
:100B5000BB0B802DBF01FF2793585F4F3AF09E3F9C
:100B6000510578F00C944C060C9497065F3FE4F323
:100B7000983ED4F3869577956795B795F7959F5FDF
:100B8000C9F7880F911D9695879597F90895E1E02B
:100B9000660F771F881FBB1F621773078407BA078A
:100BA00020F0621B730B840BBA0BEE1F88F7E095E5
:100BB00008950E94E0056894B1110C949706089579
:100BC0000E947C0688F09F5798F0B92F9927B7515B
:100BD000B0F0E1F0660F771F881F991F1AF0BA95E1
:100BE000C9F714C0B13091F00E949606B1E00895A3
:100BF0000C949606672F782F8827B85F39F0B93F95
:100C0000CCF3869577956795B395D9F73EF4909593
:100C10008095709561957F4F8F4F9F4F0895E89411
:100C200009C097FB3EF490958095709561957F4F34
:100C30008F4F9F4F9923A9F0F92F96E9BB279395E2
:100C4000F695879577956795B795F111F8CFFAF4F2
:100C5000BB0F11F460FF1BC06F5F7F4F8F4F9F4F23
:100C600016C0882311F096E911C0772321F09EE881
:100C7000872F762F05C0662371F096E8862F70E0E7
:100C800060E02AF09A95660F771F881FDAF7880FC1
:100C90009695879597F9089597F99F6780E870E092
:100CA00060E008959FEF80EC089500240A941616E2
:100CB000170618060906089500240A94121613064A
:100CC000140605060895092E0394000C11F48823D8
:100CD00052F0BB0F40F4BF2B11F460FF04C06F5FF4
:100CE0007F4F8F4F9F4F089557FD9058440F551FCA
:100CF00059F05F3F71F04795880F97FB991F61F09E
:100D00009F3F79F087950895121613061406551F14
:100D1000F2CF4695F1DF08C0161617061806991F80
:100D2000F1CF86957105610508940895E894BB2775
:100D300066277727CB0197F90895EE0FFF1F0590DF
:100D4000F491E02D0994F894FFCF000000002C01ED
:100D50008C00B9007901EA00C800DC000D0A00002F
:107E0000112484B714BE81FFF0D085E080938100F7
:107E100082E08093C00088E18093C10086E0809377
:107E2000C20080E18093C4008EE0C9D0259A86E02C
:107E300020E33CEF91E0309385002093840096BBD3
:107E4000B09BFECF1D9AA8958150A9F7CC24DD24C4
:107E500088248394B5E0AB2EA1E19A2EF3E0BF2EE7
:107E6000A2D0813461F49FD0082FAFD0023811F036
:107E7000013811F484E001C083E08DD089C08234E0
:107E800011F484E103C0853419F485E0A6D080C0E4
:107E9000853579F488D0E82EFF2485D0082F10E0AE
:107EA000102F00270E291F29000F111F8ED06801E7
:107EB0006FC0863521F484E090D080E0DECF843638
:107EC00009F040C070D06FD0082F6DD080E0C81688
:107ED00080E7D80618F4F601B7BEE895C0E0D1E017
:107EE00062D089930C17E1F7F0E0CF16F0E7DF06D8
:107EF00018F0F601B7BEE89568D007B600FCFDCFD4
:107F0000A601A0E0B1E02C9130E011968C91119780
:107F100090E0982F8827822B932B1296FA010C0160
:107F200087BEE89511244E5F5F4FF1E0A038BF0790
:107F300051F7F601A7BEE89507B600FCFDCF97BE46
:107F4000E89526C08437B1F42ED02DD0F82E2BD052
:107F50003CD0F601EF2C8F010F5F1F4F84911BD097
:107F6000EA94F801C1F70894C11CD11CFA94CF0C13
:107F7000D11C0EC0853739F428D08EE10CD085E9AC
:107F80000AD08FE07ACF813511F488E018D01DD067
:107F900080E101D065CF982F8091C00085FFFCCF94
:107FA0009093C60008958091C00087FFFCCF809118
:107FB000C00084FD01C0A8958091C6000895E0E648
:107FC000F0E098E1908380830895EDDF803219F02E
:107FD00088E0F5DFFFCF84E1DECF1F93182FE3DFCA
:107FE0001150E9F7F2DF1F91089580E0E8DFEE27F6
:047FF000FF270994CA
:027FFE00040479
:00000001FF
