:100000000C9495010C94C6010C94C6010C94C60185
:100010000C94C6010C94C6010C94C6010C94C60144
:100020000C94C6010C94C6010C94C6010C94C60134
:100030000C94C6010C94C6010C94C6010C94C60124
:100040000C94C6010C94C6010C94C6010C94C60114
:100050000C94C6010C94C6010C94C6010C947F0745
:100060000C94C6010C9449070C941F070C94C6010C
:100070000C94C6010C94C6010C94C6010C94C601E4
:100080000C94C9070C94C6010C94C6010C94C601CB
:100090000C94C6010C94C6010C94C6010C94C601C4
:1000A0000C94C6010C94C6010C94C6010C94C601B4
:1000B0000C94C6010C94C6010C94C6010C94C601A4
:1000C0000C94C6010C94C6010C94C6010C94C60194
:1000D0000C94C6010C94C6010C94C6010C94C60184
:1000E0000C94C6010C94BA030C9471040C9428026D
:1000F0000C9488030C947A030C94BF030C94A7030C
:100100000C9464020C94B1030C9478020C94BE021B
:100110000C94AD030C94B5030C9462080C94700419
:100120000C94BB030C9480030C9484030C949903EB
:100130000C9495030C94A3030C949F030C94B406A5
:100140000C948C030C9486020C940B030C948F0378
:100150000C94550230300030310030320030330022
:100160003034003035003036003037003038003061
:100170003900313000313100313200313300313457
:100180000031350031360031370031380031390067
:100190003230003231003232003233003234003239
:1001A0003500323600323700323800323900333011
:1001B0000033310033320033330033340033350041
:1001C00033360033370033380033390034300034ED
:1001D00031003432003433003434003435003436E6
:1001E0000034370034380034390035300035310000
:1001F00035320035330035340035350035360035BD
:100200003700353800353900000021002400270070
:100210002A002D0030003300010100000401070115
:100220000A0100002200250028002B002E003100CA
:10023000340002010000050108010B01000020004C
:100240002300260029002C002F00320000010000AE
:100250000301060109010505050507050808080849
:10026000020202020A0A080804040404010101014E
:100270000101010103030303030303030407070749
:100280000C0C0C0C0C0C0C0C0202020206060606EE
:10029000060606060B0B0B0B0B0B0B0B01021020BB
:1002A00020080810204010204080020102010804AC
:1002B0000201010204081020408080402010080440
:1002C0000201800402018040201008040201080499
:1002D00002010102040810204080010204081020DD
:1002E000408000000A0B02090C0D0E0807030401F0
:1002F00000000000000000000000000000000000FE
:1003000000000000000000000000000000001211CA
:1003100010000000000000000000000000000000CD
:100320000000000000000000620811241FBECFEF93
:10033000D1E2DEBFCDBF00E00CBF23E0AEE2B2E011
:1003400001C01D92AE30B207E1F712E0A0E0B2E0CA
:10035000E4ECFCE100E00BBF02C007900D92AE326E
:10036000B107D9F711E0C5E9D1E000E006C0219757
:100370000109802FFE010E944D0EC439D10780E093
:100380000807A9F70E94C6080C94600E0C940000A0
:100390003F924F925F926F927F928F929F92AF9215
:1003A000BF92CF92DF92EF92FF920F931F93CF9362
:1003B000DF937C01062F6C0184E0C80ED11C11E094
:1003C0001017A0F5F60181909190A190B1906F0166
:1003D000312EC32DD0E0C150D04CCC0FDD1FCC0F3F
:1003E000DD1FF701EC0FFD1F40805180628073809C
:1003F0002496CE0DDF1DA3019201C501B4010E9418
:10040000E80B87FF07C0488259826A827B823A9450
:100410003110DFCF84E0389EF0011124EE0DFF1D76
:1004200080829182A282B3821F5FCACFDF91CF9177
:100430001F910F91FF90EF90DF90CF90BF90AF9002
:100440009F908F907F906F905F904F903F90089516
:10045000AF92BF92CF92DF92EF92FF920F931F93D2
:10046000CF93DF936C017B018B01040F151FEB0110
:100470005E01AE18BF08C017D10759F06991D601C7
:10048000ED91FC910190F081E02DC6011995892B29
:1004900079F7C501DF91CF911F910F91FF90EF90F8
:1004A000DF90CF90BF90AF900895FC01538D448DA5
:1004B000252F30E0842F90E0821B930B541710F00F
:1004C000CF96089501970895FC01918D828D98171C
:1004D00061F0A28DAE0FBF2FB11D5D968C91928DF4
:1004E0009F5F9F73928F90E008958FEF9FEF089525
:1004F000FC01918D828D981731F0828DE80FF11DEE
:10050000858D90E008958FEF9FEF0895FC01918D08
:10051000228D892F90E0805C9F4F821B91098F7301
:100520009927089585E492E00E94860221E0892BB4
:1005300009F420E0822F0895FC01A48DA80FB92FA3
:10054000B11DA35ABF4F2C91848D90E001968F73FB
:100550009927848FA689B7892C93A089B1898C911A
:10056000837080648C93938D848D981306C0028869
:10057000F389E02D80818F7D80830895EF92FF9233
:100580000F931F93CF93DF93EC0181E0888F9B8DB6
:100590008C8D98131AC0E889F989808185FF15C070
:1005A0009FB7F894EE89FF896083E889F989808193
:1005B0008370806480839FBF81E090E0DF91CF9162
:1005C0001F910F91FF90EF900895F62E0B8D10E084
:1005D0000F5F1F4F0F731127E02E8C8D8E110CC0F3
:1005E0000FB607FCFACFE889F989808185FFF5CF3E
:1005F000CE010E949C02F1CFEB8DEC0FFD2FF11D7F
:10060000E35AFF4FF0829FB7F8940B8FEA89FB897A
:1006100080818062CFCFCF93DF93EC01888D8823D8
:10062000B9F0AA89BB89E889F9898C9185FD03C055
:10063000808186FD0DC00FB607FCF7CF8C9185FF3A
:10064000F2CF808185FFEDCFCE010E949C02E9CFE1
:10065000DF91CF91089580E090E0892B29F00E94EE
:10066000920281110E94000080E090E0892B49F005
:1006700080E090E0892B29F00E94000081110E9407
:10068000000080E090E0892B49F080E090E0892B29
:1006900029F00E94000081110E94000080E090E09B
:1006A000892B49F080E090E0892B29F00E9400001E
:1006B00081110C94000008958150823108F05AC0D5
:1006C000E82FF0E08827E859FC4F8F4F0C944D0E2F
:1006D00088038C037A0380038403BA038F03950392
:1006E00099039F03A303A703AD03B103BA03B503A3
:1006F000BB03BF03809180008F77809380000895B3
:10070000809180008F7DF9CF80918000877FF5CF29
:1007100084B58F7784BD089584B58F7DFBCF80919C
:10072000B0008F778093B00008958091B0008F7DE6
:10073000F9CF809190008F778093900008958091F9
:1007400090008F7DF9CF80919000877FF5CF8091C9
:10075000A0008F778093A00008958091A0008F7DE6
:10076000F9CF8091A000877FF5CF809120018F770E
:10077000809320010895809120018F7DF9CF809191
:100780002001877FF5CFCF93DF93282F30E0F90149
:10079000EE51FD4F8491F901E456FD4FD491F901DA
:1007A000EA5AFD4FC491CC23A1F081110E945C0351
:1007B000EC2FF0E0EE0FFF1FE45CFD4FA591B4912C
:1007C000EC91ED2381E090E009F480E0DF91CF919E
:1007D000089580E090E0FACF1F93CF93DF93282F06
:1007E00030E0F901EE51FD4F8491F901E456FD4FDF
:1007F000D491F901EA5AFD4FC491CC23A9F0162FE8
:1008000081110E945C03EC2FF0E0EE0FFF1FEE5D04
:10081000FD4FA591B4918FB7F894EC91111108C0D8
:10082000D095DE23DC938FBFDF91CF911F91089588
:10083000DE2BF8CFCF93DF9390E0FC01E456FD4F21
:1008400024918A5A9D4FFC0184918823D1F090E035
:10085000880F991FFC01E85FFD4FA591B491FC0141
:10086000EE5DFD4FC591D49161110EC09FB7F89414
:100870008C91E22FE0958E238C932881E223E883EC
:100880009FBFDF91CF9108958FB7F894EC91E22B41
:10089000EC938FBFF6CF3FB7F89480912F029091E1
:1008A0003002A0913102B091320226B5A89B05C05A
:1008B0002F3F19F00196A11DB11D3FBFBA2FA92FDF
:1008C000982F8827BC01CD01620F711D811D911DDC
:1008D00042E0660F771F881F991F4A95D1F7089548
:1008E000089590E080E00895EF92FF920F931F9398
:1008F000CF93DF93F090E302E090E20208E010E093
:10090000C0E0D0E861E08F2D0E94EC038E2D0E94A4
:10091000C303019709F4CD2B60E08F2D0E94EC03F7
:10092000D6950150110971F78C2FDF91CF911F914E
:100930000F91FF90EF900895FF920F931F93CF9325
:10094000DF938091E2020E94C3030197D1F310E08C
:10095000F8940E947404D82F0E947404F82E0E9408
:100960007404082F8091E402803471F0C2E0803278
:1009700061F061E08091E3020E94EC0360E080910D
:10098000E3020E94EC030DC0C3E061E08091E3024A
:100990000E94EC0360E08091E3020E94EC03C150EE
:1009A000A1F77894D7FD1FEF2FB7F89480914102FB
:1009B00090914202A0914302B09144022FBF8093D4
:1009C000ED029093EE02A093EF02B093F002602F3D
:1009D0007F2D8D2F912F0E94EF0BDF91CF911F91D3
:1009E0000F91FF900895CF92DF92EF92FF920F93B5
:1009F0001F93CF93DF93CDB7DEB7EC970FB6F89484
:100A0000DEBF0FBECDBF8091F502823081F040F491
:100A1000813071F10E949C0420E030E0A90125C0E2
:100A20008530C0F70E949C046B017C013CC08E01A4
:100A30000F5F1F4F6E018DE0C80ED11C78010E9420
:100A40009C04F80161937193819391938F01EC154C
:100A5000FD05A9F763E0C7010E94C80120E030E06E
:100A6000A9016D817E818F8198850E940D0DDCCF5B
:100A70008E010F5F1F4F6E01FDE0CF0ED11C78017C
:100A80000E949C04F80161937193819391938F016B
:100A9000EC15FD05A9F763E0C7010E94C801CD80F0
:100AA000DE80EF80F8846091E5027091E60280912B
:100AB000E7029091E8020E94EF0B9B01AC01C70195
:100AC000B6010E940C0DEC960FB6F894DEBF0FBE77
:100AD000CDBFDF91CF911F910F91FF90EF90DF90ED
:100AE000CF900895CF93DF93EC0160E08E810E9458
:100AF000EC0361E08E810E94EC0360E08E810E9435
:100B0000EC038BE891E00197F1F7DF91CF91089525
:100B1000CF92DF92EF92FF920F931F93CF93DF93C9
:100B20006C017C0187E0E80EF11CD0E0C0E0062FEC
:100B300010E0B8010C2E02C0759567950A94E2F793
:100B40006170F70181917F010E94EC032196C4300E
:100B5000D10579F7C601DF91CF911F910F91FF90D9
:100B6000EF90DF90CF900C947205CF92DF92EF92CE
:100B7000FF920F931F93CF93DF93EC01F62E642F18
:100B80008C810E94EC038D818F3F19F060E00E9400
:100B9000EC030F2D10E08F8584FF25C06E0187E0E8
:100BA000C80ED11CF12CE12CB8010E2C02C0759599
:100BB00067950A94E2F76170F60181916F010E94D6
:100BC000EC03FFEFEF1AFF0A88E0E816F10461F783
:100BD000CE01DF91CF911F910F91FF90EF90DF90A9
:100BE000CF900C947205B80184E0759567958A954D
:100BF000E1F7CE010E9488056F2DCE01DF91CF91E4
:100C00001F910F91FF90EF90DF90CF900C9488058B
:100C100040E0682F86EF92E00C94B505CF93DF9308
:100C2000823029F490910503986090930503809396
:100C3000090310920A0380E480930B0380E1809300
:100C40000C0380E580930D0361E08091FA020E941D
:100C50001A048091FB028F3F19F061E00E941A0490
:100C600061E08091FC020E941A04C6EFD2E09E016E
:100C7000265F32408091050384FD0BC084E090E044
:100C800021962817390744F461E08E810E941A04E6
:100C9000EECF88E090E0F4CF8BE39DE00197F1F791
:100CA00060E08091FA020E94EC0360E08091FC0217
:100CB0000E94EC038091FB028F3F19F060E00E94DC
:100CC000EC038091050384FD39C063E086EF92E078
:100CD0000E948805CBE4D6E4CE010197F1F763E0EA
:100CE00086EF92E00E9488052197F1F763E086EF96
:100CF00092E00E94880583E592E00197F1F762E0B7
:100D000086EF92E00E9488058091050380620E9430
:100D1000080684E0809306038CE00E94080681E0C8
:100D20000E9408068BE39FE10197F1F782E0809330
:100D3000070386E0DF91CF910C94080680620E9441
:100D400008068BE496E40197F1F780910503806231
:100D50000E94080683E592E00197F1F78091050370
:100D600080620E940806D0CF41E00E94B50581E074
:100D700090E00895CF93DF93EC01FC01649141E092
:100D800086EF92E00E94B505FE013196649141E044
:100D900086EF92E0DF91CF910C94B505FC010190B4
:100DA0000020E9F73197AF01481B590BBC0185E4DE
:100DB00092E00C9428028F929F92AF92BF920F9371
:100DC0001F93CF93DF93CDB7DEB7A1970FB6F894FB
:100DD000DEBF0FBECDBF19A2423008F44AE08E013B
:100DE0000F5D1F4F842E912CB12CA12CA5019401D5
:100DF0000E942B0EE62FB901CA01EA30F4F4E05D3F
:100E0000D801EE938D01232B242B252B79F790E02D
:100E100080E0109719F0CD010E94CE06A1960FB682
:100E2000F894DEBF0FBECDBFDF91CF911F910F9120
:100E3000BF90AF909F908F900895E95CE1CF1F9293
:100E40000F920FB60F9211240BB60F922F933F9370
:100E50004F935F936F937F938F939F93AF93BF93C2
:100E6000EF93FF9385E492E00E949C02FF91EF9143
:100E7000BF91AF919F918F917F916F915F914F91B2
:100E80003F912F910F900BBE0F900FBE0F901F90B0
:100E900018951F920F920FB60F9211240BB60F9256
:100EA0002F938F939F93EF93FF93E0915502F091CF
:100EB00056028081E0915B02F0915C0282FD1DC0D0
:100EC000908180915E028F5F8F7320915F02821705
:100ED00041F0E0915E02F0E0EB5BFD4F958F809377
:100EE0005E02FF91EF919F918F912F910F900BBE1A
:100EF0000F900FBE0F901F9018958081F2CF1F9218
:100F00000F920FB60F9211242F933F938F939F93BD
:100F1000AF93BF938091410290914202A09143020E
:100F2000B091440230912E0223E0230F2D3758F563
:100F30000196A11DB11D20932E0280934102909332
:100F40004202A0934302B093440280912F029091F9
:100F50003002A0913102B09132020196A11DB11D63
:100F600080932F0290933002A0933102B09332020B
:100F7000BF91AF919F918F913F912F910F900FBE95
:100F80000F901F90189526E8230F0296A11DB11D02
:100F9000D2CF1F920F920FB60F9211240BB60F9261
:100FA0000F931F932F933F934F935F936F937F9371
:100FB0008F939F93AF93BF93CF93DF93EF93FF9361
:100FC000809137028F5F809337028C3361F4909168
:100FD000380280913902109237029F5F9C3309F4E6
:100FE00066C090933802E1E0809109038111E0E04E
:100FF000E195F0E0EA50FD4F84898D5F80680E94A2
:10100000080600913902C3E00C9FC00111248C5ADC
:101010009E4F0E94BA066AE386EF92E00E94B406F1
:10102000109138021C9FC00111248C5A9E4F0E94BF
:10103000BA066AE386EF92E00E94B406D0913702C6
:10104000DC9FC00111248C5A9E4F0E94BA068091E9
:1010500033028823A9F080913602081311C08091D1
:10106000350218130DC0D23059F480913A02811123
:1010700007C081E080933A0261E08EE30E94EC03B6
:10108000FF91EF91DF91CF91BF91AF919F918F91A0
:101090007F916F915F914F913F912F911F910F9190
:1010A0000F900BBE0F900FBE0F901F9018951092CF
:1010B00038028F5F883119F08093390294CF1092F3
:1010C000390291CFE5E4F2E01382128288EE93E0D8
:1010D000A0E0B0E084839583A683B78384E092E0A8
:1010E0009183808385EC90E09587848784EC90E001
:1010F0009787868780EC90E0918B808B81EC90E0E5
:10110000938B828B82EC90E0958B848B86EC90E0C5
:10111000978B868B118E128E138E148EE6EFF2E073
:101120001382128286E192E0918380838CE0848333
:101130008FEF85838BE0868385E2878384E28087D7
:1011400083E2818782E2828713861486158616865B
:10115000178681E00E940E06E2EEF2E080E88283CC
:10116000138214821582168280E090E0A0E8BFE32B
:1011700087839087A187B287138614861586168683
:101180001786108A118A128A138A0895CF93DF93E3
:10119000CDB7DEB7E2970FB6F894DEBF0FBECDBF76
:1011A000789484B5826084BD84B5816084BD85B542
:1011B000826085BD85B5816085BD80916E0081604E
:1011C00080936E00109281008091810082608093F4
:1011D00081008091810081608093810080918000F6
:1011E0008160809380008091B10084608093B10021
:1011F0008091B00081608093B00080919100826006
:101200008093910080919100816080939100809102
:1012100090008160809390008091A1008260809313
:10122000A1008091A10081608093A1008091A00025
:1012300081608093A00080912101826080932101D0
:101240008091210181608093210180912001816042
:101250008093200180917A00846080937A0080914D
:101260007A00826080937A0080917A008160809316
:101270007A0080917A00806880937A001092C10091
:10128000E0915502F091560212E01083E091510274
:10129000F09152021082E0915302F09154028FECCF
:1012A000808310925D02E0915902F0915A0286E02B
:1012B0008083E0915702F0915802808180618083A1
:1012C000E0915702F0915802808188608083E0911C
:1012D0005702F0915802808180688083E091570224
:1012E000F091580280818F7D808385E090E0A0E0BE
:1012F000B0E08093490290934A02A0934B02B093CE
:101300004C0261E08EE30E941A04F894109290005F
:101310008DE0809391001093710088E09DE390939D
:1013200099008093980078948FE28093E2028EE295
:101330008093E30260E08FE20E941A0461E08091F2
:10134000E3020E941A0460E08091E3020E94EC0331
:101350001092E5021092E6021092E7021092E80263
:1013600080E090E0A0E8BFE38093E9029093EA0276
:10137000A093EB02B093EC0280E88093E402109219
:10138000ED021092EE021092EF021092F002109213
:10139000F50261E08EE20E941A048DE792EAA8E667
:1013A000B8E38093E9029093EA02A093EB02B09332
:1013B000EC021AE0C12CD12C76010E949C049B0106
:1013C000AC01C701B6010E940D0D6B017C011150EB
:1013D000A1F720E030E040E251E40E94790D0E9444
:1013E000EB0D6093E5027093E6028093E702909321
:1013F000E8020E94F30482E00E940E0611E00E94BF
:101400004B044B015C0188ECC82ED12CE12CF12C53
:101410000E944B04681979098A099B09683E734048
:1014200081059105A8F321E0C21AD108E108F1086D
:1014300088EE880E83E0981EA11CB11CC114D10453
:10144000E104F10429F70E94F3042091E9023091AC
:10145000EA024091EB025091EC020E944E0C20E017
:1014600030E040E05FE30E944E0C60933D027093D9
:101470003E0280933F02909340020E94F304209129
:10148000E9023091EA024091EB025091EC020E9495
:101490004E0C20E030E040E05FE30E944E0C6B0118
:1014A0007C014B015C01AC019B010E94260E88234C
:1014B00009F496C08EE192E00E94CE068AE292E0A4
:1014C0000E94CE0620E030E040E251E460913D020F
:1014D00070913E0280913F02909140020E944E0C1A
:1014E0006B017C0160913B0270913C02072E000C65
:1014F000880B990B0E94EF0B9B01AC01C701B60151
:101500000E94210E87FD06C060E08EE30E94EC037E
:1015100010923A0285E492E00E948602892B09F437
:1015200001C1CE0101965C01D12CC12C7C012FB7E9
:10153000F8948091410290914202A0914302B091AF
:1015400044022FBF80934D0290934E02A0934F020E
:10155000B093500285E492E00E94640297FF02C1BA
:101560002FB7F8948091410290914202A0914302DA
:10157000B09144022FBF40914D0250914E026091B4
:101580004F0270915002841B950BA60BB70B409134
:10159000490250914A0260914B0270914C028417AB
:1015A0009507A607B707B0F2F701EC0DFD1D1082F5
:1015B0006E018FE1C80ED11CC7010E94C20BF6015B
:1015C000819391936F016CE270E0C7010E94550E08
:1015D000009709F499C07C01FFEFEF1AFF0AECCFE6
:1015E00026013701E89477F82FEF3FEF4FE75FE7E9
:1015F000C301B2010E94260E81110DC02FEF3FEFF3
:101600004FE75FE7C301B2010E94E80B18161CF414
:1016100082E292E051CF2FEF3FEF4FE75FE4C70147
:10162000B6010E94210E18161CF486E292E044CF07
:101630002FEF3FEF4FE75FECC701B6010E94E80BC9
:1016400087FDF3CF20E030E0A901C701B6010E9479
:10165000E80B87FF0BC06DE285E492E00E94BE02BA
:1016600046015701B7FAB094B7F8B0942AE037EDC5
:1016700043EA5BE3C501B4010E940D0D4B015C011F
:101680000E94F20D6B017C010E94ED0B9B01AC01ED
:10169000C501B4010E940C0D4B015C014AE0C70179
:1016A000B6010E94DB066EE285E492E00E94BE0273
:1016B00020E030E040E251E4C501B4010E944E0C4C
:1016C0004B015C010E94F20D6B01F12CE12C4AE010
:1016D000C701B6010E94DB06C701B6010E94ED0BEF
:1016E0009B01AC01C501B4010E940C0D20E030E06B
:1016F00040E251E40E944E0C0E94F20D90E080E026
:101700004AE00E94DB06DACE8F8D98A182309105E7
:1017100061F08531910581F0019721F461E08EE35C
:101720000E94EC030E942B036ACE89A180933902A8
:101730008BA180933802F6CF89A1809336028BA1CA
:10174000809335028DA19EA1019749F41093330235
:101750008FA198A590933C0280933B02E3CF109217
:101760003302F6CF8B33910509F41ECFF501819337
:101770005F01FFEFCF1ADF0A2EE1C216D10409F094
:10178000D6CE12CFFC0188279927E89421912032E8
:10179000E9F3293010F02E30C8F32B3241F02D320E
:1017A00039F4689404C00E94E00B820F911D2191CE
:1017B00020532A30C0F31EF4909581959F4F0895D1
:1017C0007AE0979F902D879F802D910D1124089589
:1017D0000E942A0C08F481E00895E89409C097FB60
:1017E0003EF490958095709561957F4F8F4F9F4FF8
:1017F0009923A9F0F92F96E9BB279395F69587953C
:1018000077956795B795F111F8CFFAF4BB0F11F4FE
:1018100060FF1BC06F5F7F4F8F4F9F4F16C08823A5
:1018200011F096E911C0772321F09EE8872F762FDB
:1018300005C0662371F096E8862F70E060E02AF01C
:101840009A95660F771F881FDAF7880F9695879508
:1018500097F90895990F0008550FAA0BE0E8FEEFDD
:1018600016161706E807F907C0F012161306E40764
:10187000F50798F0621B730B840B950B39F40A265D
:1018800061F0232B242B252B21F408950A2609F43B
:10189000A140A6958FEF811D811D08950E94610CC6
:1018A0000C94D20C0E94C40C38F00E94CB0C20F097
:1018B000952311F00C94BB0C0C94C10C11240C94C6
:1018C000060D0E94E30C70F3959FC1F3950F50E055
:1018D000551F629FF001729FBB27F00DB11D639FE2
:1018E000AA27F00DB11DAA1F649F6627B00DA11D88
:1018F000661F829F2227B00DA11D621F739FB00D2E
:10190000A11D621F839FA00D611D221F749F33279D
:10191000A00D611D231F849F600D211D822F762F36
:101920006A2F11249F5750409AF0F1F088234AF013
:10193000EE0FFF1FBB1F661F771F881F915050407F
:10194000A9F79E3F510580F00C94BB0C0C94060D3A
:101950005F3FE4F3983ED4F3869577956795B79506
:10196000F795E7959F5FC1F7FE2B880F911D969520
:10197000879597F9089597F99F6780E870E060E090
:1019800008959FEF80EC089500240A941616170618
:1019900018060906089500240A9412161306140660
:1019A00005060895092E0394000C11F4882352F0C3
:1019B000BB0F40F4BF2B11F460FF04C06F5F7F4F7B
:1019C0008F4F9F4F089557FD9058440F551F59F062
:1019D0005F3F71F04795880F97FB991F61F09F3F1C
:1019E00079F087950895121613061406551FF2CF45
:1019F0004695F1DF08C0161617061806991FF1CF95
:101A000086957105610508940895E894BB276627BB
:101A10007727CB0197F908955058BB27AA270E9432
:101A2000240D0C94D20C0E94C40C38F00E94CB0CF4
:101A300020F039F49F3F19F426F40C94C10C0EF4F5
:101A4000E095E7FB0C94BB0CE92F0E94E30C58F3E4
:101A5000BA17620773078407950720F079F4A6F593
:101A60000C94050D0EF4E0950B2EBA2FA02D0B0152
:101A7000B90190010C01CA01A0011124FF27591BD3
:101A800099F0593F50F4503E68F11A16F040A22FD9
:101A9000232F342F4427585FF3CF4695379527954A
:101AA000A795F0405395C9F77EF41F16BA0B620B49
:101AB000730B840BBAF09150A1F0FF0FBB1F661F90
:101AC000771F881FC2F70EC0BA0F621F731F841FD3
:101AD00048F4879577956795B795F7959E3F08F0F9
:101AE000B0CF9395880F08F09927EE0F97958795BB
:101AF00008950E948D0D0C94D20C0E94CB0C58F0CE
:101B00000E94C40C40F029F45F3F29F00C94BB0CF8
:101B100051110C94060D0C94C10C0E94E30C68F357
:101B20009923B1F3552391F3951B550BBB27AA2796
:101B300062177307840738F09F5F5F4F220F331FD0
:101B4000441FAA1FA9F335D00E2E3AF0E0E832D098
:101B500091505040E695001CCAF72BD0FE2F29D09B
:101B6000660F771F881FBB1F261737074807AB076D
:101B7000B0E809F0BB0B802DBF01FF2793585F4FE2
:101B80003AF09E3F510578F00C94BB0C0C94060D76
:101B90005F3FE4F3983ED4F3869577956795B795C4
:101BA000F7959F5FC9F7880F911D9695879597F9CF
:101BB0000895E1E0660F771F881FBB1F6217730748
:101BC0008407BA0720F0621B730B840BBA0BEE1F5D
:101BD00088F7E09508950E94F20D6894B1110C9475
:101BE000060D08950E94EB0C88F09F5798F0B92FCE
:101BF0009927B751B0F0E1F0660F771F881F991F42
:101C00001AF0BA95C9F714C0B13091F00E94050DD1
:101C1000B1E008950C94050D672F782F8827B85FE1
:101C200039F0B93FCCF3869577956795B395D9F799
:101C30003EF490958095709561957F4F8F4F9F4FA3
:101C400008950E942A0C08F48FEF08950E942A0C30
:101C5000880B990B0895A1E21A2EAA1BBB1BFD014C
:101C60000DC0AA1FBB1FEE1FFF1FA217B307E4077B
:101C7000F50720F0A21BB30BE40BF50B661F771FD3
:101C8000881F991F1A9469F76095709580959095B3
:101C90009B01AC01BD01CF010895EE0FFF1F881F0E
:101CA0008BBF0790F691E02D1994FC018191861766
:101CB00021F08823D9F7992708953197CF01089506
:041CC000F894FFCFC6
:101CC40000000000BE02280255020B0386026402D3
:101CD400780200000000B4062802710470046E61EA
:0E1CE4006E00696E66006F7666000D0A0000E5
:00000001FF
